:100000000C9463010C9494010C9494010C9494014D
:100010000C9494010C9494010C9494010C9494010C
:100020000C9494010C9494010C9494010C949401FC
:100030000C9494010C9494010C9494010C949401EC
:100040000C9494010C9494010C9494010C949401DC
:100050000C9494010C9494010C9494010C94FE0C57
:100060000C9494010C94A7030C947D030C949401BC
:100070000C9494010C9494010C9494010C949401AC
:100080000C9494010C9494010C9494010C9494019C
:100090000C9494010C9494010C9494010C94740BA2
:1000A0000C9494010C9494010C9494010C9494017C
:1000B0000C9494010C9494010C9494010C9494016C
:1000C0000C9494010C9494010C9494010C9494015C
:1000D0000C9494010C9494010C9494010C9494014C
:1000E0000C94940182078507740778077C07BC0786
:1000F00089078D07930797079B07A107A507A907FE
:10010000BC07AF07B307B707084AD73B3BCE016E22
:1001100084BCBFFDC12F3D6C74319ABD56833DDA5E
:100120003D00C77F11BED9E4BB4C3E916BAAAABE6D
:10013000000000803F000C9497070C94B3070C94C8
:100140009B070C94A9070C942F120C94B7070C94DE
:1001500078070C9417040C941C060C94A5070C94B7
:100160008D070C947C070C94F6090C94D5010C9423
:100170001A0A0C944A0A0C949E0A0C94BC090C941A
:1001800096010C946E0B0C94A1070C94C1010C9475
:10019000E3010C9474070C9485070C94BC070C9431
:1001A000060A0C9461020C9489070C9493070C9432
:1001B0001A020C94AF070C94F7090C948207000004
:1001C0002100240027002A002D0030003300010107
:1001D0000000040107010A01000022002500280098
:1001E0002B002E003100340002010000050108013F
:1001F0000B010505050507050808080802020202AB
:100200000A0A0808040404040101010101010101B2
:100210000303030303030303040707070C0C0C0C7D
:100220000C0C0C0C02020202060606060606060666
:100230000B0B0B0B0B0B0B0B0102102020080810F3
:100240002040102040800201020108040201010246
:10025000040810204080804020100804020180041F
:10026000020180402010080402010804020101027A
:100270000408102040800102040810204080000083
:100280000A0B02090C0D0E08070304010000000010
:10029000000000000000000000000000000000005E
:1002A000000000000000000000001211100000001B
:1002B000000000000000000000000000000000003E
:1002C000000000002F1211241FBECFEFD1E2DEBFCD
:1002D000CDBF00E00CBF13E0A0E0B2E0E0E2FBE243
:1002E00000E00BBF02C007900D92AA35B107D9F705
:1002F00025E0AAE5B3E001C01D92A534B207E1F7FD
:1003000011E0C3E6D1E000E006C021970109802F8B
:10031000FE010E949912C236D10780E00807A9F7B2
:100320000E94480D0C948E150C940000CF92DF9221
:10033000EF92FF920F931F93CF93DF936C017A019B
:100340008B01C0E0D0E0CE15DF0589F0D8016D91BA
:100350008D01D601ED91FC910190F081E02DC60157
:100360001995892B11F47E0102C02196ECCFC701AB
:10037000DF91CF911F910F91FF90EF90DF90CF9081
:100380000895FC01918D828D981761F0828DDF01B7
:10039000A80FB11D5D968C91928D9F5F9F73928F78
:1003A00090E008958FEF9FEF0895FC01918D828D6D
:1003B000981731F0828DE80FF11D858D90E008953A
:1003C0008FEF9FEF0895FC01918D228D892F90E092
:1003D000805C9F4F821B91098F739927089583EC4E
:1003E00093E00E94E30121E0892B09F420E0822FB1
:1003F0000895FC01848DDF01A80FB11DA35ABF4FE2
:100400002C91848D90E001968F739927848FA68913
:10041000B7892C93A089B1898C9180648C93938D3A
:10042000848D981306C00288F389E02D80818F7D2A
:1004300080830895EF92FF920F931F93CF93DF93E2
:10044000EC0181E0888F9B8D8C8D981305C0E88925
:10045000F989808185FD24C0F62E0B8D10E00F5F99
:100460001F4F0F731127E02E8C8DE8120CC00FB6B2
:1004700007FCFACFE889F989808185FFF5CFCE01A5
:100480000E94F901F1CF8B8DFE01E80FF11DE35AB7
:10049000FF4FF0820B8FEA89FB898081806207C061
:1004A000EE89FF896083E889F9898081806480838F
:1004B00081E090E0DF91CF911F910F91FF90EF903D
:1004C0000895CF93DF93EC01888D8823C9F0EA89E2
:1004D000FB89808185FD05C0A889B9898C9186FD3D
:1004E0000FC00FB607FCF5CF808185FFF2CFA8893A
:1004F000B9898C9185FFEDCFCE010E94F901E7CF3C
:10050000DF91CF91089580E090E0892B21F00E9447
:10051000EF01811125C080E090E0892B41F080E05F
:1005200090E0892B21F00E94000081111CC080E026
:1005300090E0892B41F080E090E0892B21F00E942F
:100540000000811113C080E090E0892BA1F080E0D1
:1005500090E0892B81F00E94000081110AC008956B
:100560000E940000D8CF0E940000E1CF0E9400004E
:10057000EACF0C94000008950E948915CF92DF9273
:10058000EF92FF9280916004811102C00E94530695
:10059000C0907C04D0907D04E0907E04F0907F04B5
:1005A00080916004811102C00E9453062091800452
:1005B000309181044091820450918304C701B601B7
:1005C0000E9421136B017C0120E030E0A9010E9410
:1005D000801387FF0AC02BED3FE049EC50E4C701D0
:1005E000B6010E94A2126B017C012BED3FE049ECA9
:1005F00050E4C701B6010E940215181654F42BED01
:100600003FE049EC50E4C701B6010E94A1126B0122
:100610007C0121EE3EE245E652E4C701B6010E94AC
:100620000F15FF90EF90DF90CF900895DC01ED91D2
:10063000FC910190F081E02D19946115710579F01C
:10064000FB0101900020E9F73197AF01461B570BE2
:10065000DC01ED91FC910280F381E02D199480E0A2
:1006600090E008954F925F926F927F92EF92FF9287
:100670000F931F93CF93DF93CDB7DEB7A1970FB63C
:10068000F894DEBF0FBECDBF7C01FA01CB0119A2E9
:10069000223008F42AE08E010F5D1F4F422E512CAC
:1006A000612C712CBF01A30192010E947712F90104
:1006B000CA01015011096A3014F4605D01C0695C1F
:1006C000D8016C93232B242B252B61F7B801C7018C
:1006D0000E941D03A1960FB6F894DEBF0FBECDBFDA
:1006E000DF91CF911F910F91FF90EF907F906F90CE
:1006F0005F904F9008950C941D031F920F920FB6B8
:100700000F9211240BB60F922F933F934F935F9349
:100710006F937F938F939F93AF93BF93EF93FF93C9
:1007200083EC93E00E94F901FF91EF91BF91AF91AB
:100730009F918F917F916F915F914F913F912F91F9
:100740000F900BBE0F900FBE0F901F9018951F9229
:100750000F920FB60F9211240BB60F922F938F9317
:100760009F93EF93FF93E091D303F091D4038081A3
:10077000E091D903F091DA0382FD12C0908180915B
:10078000DC038F5F8F732091DD03821751F0E091BE
:10079000DC03F0E0ED53FC4F958F8093DC0301C048
:1007A0008081FF91EF919F918F912F910F900BBEC0
:1007B0000F900FBE0F901F901895CF93DF931F924D
:1007C000CDB7DEB71982A091B503B091B6031097EB
:1007D00039F11B96ED91FC911C9721E0AE014F5F22
:1007E0005F4F67E018968C91199581111BC0198293
:1007F000A091B503B091B6031996ED91FC911A97AB
:1008000021E0AE014F5F5F4F67E018968C9119951C
:10081000811109C0E091B503F091B603138203C0C2
:1008200081E801C08FEF0F90DF91CF910895BC0157
:1008300080E090E00C94C40C8F929F92AF92BF9294
:10084000CF92DF92EF92FF92CF93DF936B017C0107
:100850009B01AC010E948015882319F06EE473E0BF
:1008600027C046015701E894B7F82FEF3FEF4FE755
:100870005FE7C501B4010E94801581110DC02FEF03
:100880003FEF4FE75FE7C501B4010E9480131816E0
:100890001CF462E573E00CC02FEF3FEF4FE75FE41D
:1008A000C701B6010E940215181684F466E573E0CC
:1008B00083EC93E0DF91CF91FF90EF90DF90CF90AA
:1008C000BF90AF909F908F900C941D032FEF3FEF40
:1008D0004FE75FECC701B6010E94801387FDE6CFAA
:1008E00020E030E0A901C701B6010E94801387FF14
:1008F0000BC06DE283EC93E00E941603EC01F7FA63
:10090000F094F7F8F09402C0C0E0D0E02AE037EDB0
:1009100043EA5BE3C701B6010E94A2124B015C01EE
:100920000E94FA136B017C010E9429149B01AC0107
:10093000C501B4010E94A1124B015C012AE0B7017C
:10094000A60183EC93E00E943203C80FD91F6EE228
:1009500083EC93E00E941603C80FD91F20E030E01B
:1009600040E251E4C501B4010E940F154B015C0146
:100970000E94FA136B01E12CF12C2AE0B701A601C9
:1009800083EC93E00E943203C80FD91FC701B60160
:100990000E9429149B01AC01C501B4010E94A1125F
:1009A00020E030E040E251E40E940F150E94FA136B
:1009B000AB0160E070E02AE083EC93E00E94320338
:1009C0008C0F9D1FDF91CF91FF90EF90DF90CF9024
:1009D000BF90AF909F908F900895CF93DF93BC010D
:1009E00083EC93E00E941D03EC016CED72E083EC5C
:1009F00093E00E941D038C0F9D1FDF91CF910895FE
:100A0000CF93DF931F92CDB7DEB71982E091B50384
:100A1000F091B603309741F18381811108C0E091D4
:100A2000B503F091B6038381882329F01DC00E948D
:100A3000DD038111F4CFA091B503B091B6031B96ED
:100A4000ED91FC911C9721E0AE014F5F5F4F65E394
:100A500018968C91199589818C7090E09595879561
:100A6000959587958093C0041982E091B503F09124
:100A7000B603309719F18381811108C0E091B50365
:100A8000F091B6038381882329F018C00E94DD030A
:100A90008111F4CFA091B503B091B6031B96ED91EF
:100AA000FC911C9721E0AE014F5F5F4F65E3189604
:100AB0008C911995898183708093C1041982E0918A
:100AC000B503F091B603309749F18381811108C0D5
:100AD000E091B503F091B6038381882329F01EC00D
:100AE0000E94DD038111F4CFA091B503B091B6034C
:100AF0001B96ED91FC911C9721E0AE014F5F5F4F7B
:100B000065E318968C9119958981807390E024E0B3
:100B1000959587952A95E1F78093C2041982E09113
:100B2000B503F091B603309731F18381811108C08C
:100B3000E091B503F091B6038381882329F01BC0AF
:100B40000E94DD038111F4CFA091B503B091B603EB
:100B50001B96ED91FC911C9721E0AE014F5F5F4F1A
:100B600065E318968C91199589818295869586956D
:100B700083708093C3040F90DF91CF910895382F35
:100B80002091B4039091B303213208F049C08091C1
:100B900090038111FCCF42E04093900330938F0388
:100BA0003FEF30938E0310928D0320938C03A3E9C3
:100BB000B3E04CE653E0FA013E2F341B321718F431
:100BC0003D913193F9CF10926B0320916B03990FF4
:100BD000922B90936B0390916A03913061F4109281
:100BE0006A0390916B039093BB009091BC0093FDBE
:100BF000F8CF95EC01C095EE9093BC0090919003D6
:100C00009230E1F390918E039F3F79F080918E03B3
:100C1000803241F080918E03803331F084E005C052
:100C200081E003C082E001C083E010929203109241
:100C3000B403109291030895EF92FF920F931F93C4
:100C4000CF93DF931F92CDB7DEB7142F022F91E021
:100C5000909391038093B303109292031092B40384
:100C600087EB93E059830E944A0AE12E5981F52EC1
:100C70008E2D811B801740F4F70161917F0187EB76
:100C800093E00E944A0AF4CF81E00E94BF05E3E5A9
:100C9000F2E03197F1F70F90DF91CF911F910F9113
:100CA000FF90EF900895EF92FF920F931F93CF93D1
:100CB000DF9300D000D0CDB7DEB78E010F5F1F4F9E
:100CC00086E0F80111928A95E9F7E091B503F09179
:100CD000B603309709F477C08381811108C0E09191
:100CE000B503F091B6038381882329F06CC00E947C
:100CF000DD038111F4CFA091B503B091B6031B962B
:100D0000ED91FC911C9726E0A8016EE018968C915D
:100D100019956A81062E000C770B762F662799812C
:100D2000692B2C81022E000C330B322F22279B8142
:100D30007901E92A2E81022E000C330B322F222753
:100D40009D818901092B81113EC0072E000C880B63
:100D5000990B0E942B1420E030E040E85DE30E94F4
:100D60000F1560937C0470937D0480937E049093B0
:100D70007F04B701FF0C880B990B0E942B1420E015
:100D800030E040E85DE30E940F15609380047093AB
:100D900081048093820490938304B801110F880B1F
:100DA000990B0E942B1420E030E040E85DE30E94A4
:100DB0000F15609384047093850480938604909348
:100DC000870480E001C08FEF26960FB6F894DEBF4F
:100DD0000FBECDBFDF91CF911F910F91FF90EF908C
:100DE0000895CF93DF93CDB7DEB728970FB6F89469
:100DF000DEBF0FBECDBF98E0E0E0F2E0DE0111966D
:100E000001900D929A95E1F79091CF04981710F404
:100E10008FEF890FFE013196E80FF11DE80FF11DEC
:100E20006081606840E087EC94E028960FB6F89403
:100E3000DEBF0FBECDBFDF91CF910C944D0BCF9293
:100E4000DF92EF92FF92CF93DF936C01990FEE0840
:100E5000FF08F7FE1BC06DE287EC94E00E941603CA
:100E6000EC0144275527BA014C195D096E097F0929
:100E70002AE087EC94E00E9432038C0F9D1FDF91E3
:100E8000CF91FF90EF90DF90CF9008952AE0B701C7
:100E9000A60187EC94E0DF91CF91FF90EF90DF9077
:100EA000CF900C943203362F90E0FC01E258FD4FB6
:100EB0004491FC01E85CFD4F2491FC01EE50FE4F93
:100EC0009491992309F46BC0442309F455C050E070
:100ED000FA013197E231F10508F04EC08827EE584B
:100EE000FF4F8F4F0C949912809180008F7707C02D
:100EF000809180008F7D03C080918000877F8093E8
:100F000080003AC084B58F7702C084B58F7D84BDE0
:100F100033C08091B0008F7703C08091B0008F7D87
:100F20008093B00029C0809190008F7707C0809196
:100F300090008F7D03C080919000877F8093900008
:100F40001BC08091A0008F7707C08091A0008F7D8B
:100F500003C08091A000877F8093A0000DC0809186
:100F600020018F7707C0809120018F7D03C0809181
:100F70002001877F80932001E92FF0E0EE0FFF1F13
:100F8000E852FE4FA591B4918FB7F894EC913111CE
:100F900003C020952E2301C02E2B2C938FBF0895C4
:100FA0000F931F93CF93DF931F92CDB7DEB71982B4
:100FB000E091B503F091B603309731F18C01838154
:100FC000811109C0E091B503F091B60383818823B4
:100FD00031F08FEF1AC00E94DD038111F3CFA09191
:100FE000B503B091B6031B96ED91FC911C9721E0DF
:100FF000AE014F5F5F4F6DE318968C911995998103
:101000009F70F801908301C081E80F90DF91CF912C
:101010001F910F9108950F931F93CF93DF931F920A
:101020001F92CDB7DEB71A8219822091B503309195
:10103000B603232B09F474C0082FCE0101960E9439
:10104000D00781116FC08981A091B503B091B6031B
:101050001B96ED91FC911C9721E0AE014E5F5F4F16
:101060006DE38823B9F118968C911995182F811189
:1010700022C08A81807F8A83A091B503B091B60394
:10108000109771F01996ED91FC911A9721E0AE013D
:101090004E5F5F4F6DE318968C911995182F01C024
:1010A00011E8E091B503F091B6030584F685E02DD3
:1010B00084E190E019950023C1F1A091B503B091AE
:1010C000B6031B96ED91FC911C9721E0AE014E5F9B
:1010D0005F4F6DE318968C911995811125C00F70A3
:1010E0009A81907F092B0A83A091B503B091B60332
:1010F0001996ED91FC911A9721E0AE014E5F5F4F7A
:101100006DE318968C911995182FE091B503F09125
:10111000B6030584F685E02D88E592E0199505C0B3
:1011200011E803C01FEF01C0182F812F0F900F90FF
:10113000DF91CF911F910F910895CF92DF92EF929F
:10114000FF920F931F93CF93DF93CDB7DEB727970F
:101150000FB6F894DEBF0FBECDBF1982E091B50384
:10116000F091B603309709F472C08381811108C0F1
:10117000E091B503F091B6038381882329F067C01D
:101180000E94DD038111F4CFA091B503B091B603A5
:101190001B96ED91FC911C9721E0AE014F5F5F4FD4
:1011A0006BE318968C911995082F898182FF4DC0A9
:1011B0001F8219828091B5039091B603892B09F49F
:1011C00040C0CE0101960E94D007882311F01FEF86
:1011D00031C08981811128C0A091B503B091B603B7
:1011E0001B96ED91FC911C9721E0AE01495F5F4F8A
:1011F0006BE318968C911995182F81111BC08F8164
:101200008B7F8F83A091B503B091B6031996ED91B2
:10121000FC911A9721E0AE01495F5F4F6BE318968E
:101220008C911995182F06C080E00E940B0881113F
:10123000CECFD2CF8981882331F00E940B08810F55
:1012400003C081E801C0812F080F002311F00FEFC8
:1012500083C0CE0101967C0186E0F70111928A9548
:10126000E9F7E091B503F091B603309781F38381FC
:10127000811108C0E091B503F091B6038381882302
:1012800029F0E5CF0E94DD038111F4CFA091B503D1
:10129000B091B6031B96ED91FC911C9726E0A70137
:1012A0006AE118968C9119956A81062E000C770BCD
:1012B000762F66279981692B2C81022E000C330B27
:1012C000322F22279B817901E92A2E81022E000CE0
:1012D000330B322F22279D816901C92A8111B7CF93
:1012E000072E000C880B990B0E942B1420E030E095
:1012F00040E85DE30E940F1560939C0470939D0489
:1013000080939E0490939F04B601DD0C880B990B8B
:101310000E942B1420E030E040E85DE30E940F15AE
:101320006093A4047093A5048093A6049093A704EB
:10133000B701FF0C880B990B0E942B1420E030E0C2
:1013400040E85DE30E940F156093A0047093A10430
:101350008093A2049093A304802F27960FB6F8944D
:10136000DEBF0FBECDBFDF91CF911F910F91FF90D8
:10137000EF90DF90CF9008958091D80490E0209175
:10138000D704821B9109089585ED8093BC0080915C
:10139000BC0084FDFCCF109290030895409100059D
:1013A000262F30E0240F311D21323105DCF420914D
:1013B00090032430C9F4FC0180E090E0861758F4D3
:1013C000309100052191DC01A252BB4FA30FB11D4A
:1013D0002C930196F3CF80910005680F6093000570
:1013E00080E0089581E0089582E008950895E091F5
:1013F000D7048091D804E81730F4F0E0EB5DFA4FA1
:10140000808190E008958FEF9FEF08959091D70429
:101410008091D804981750F4E92FF0E0EB5DFA4F73
:10142000208130E09F5F9093D70402C02FEF3FEF01
:10143000C9010895CF92DF92EF92FF920F931F930D
:10144000CF93DF937C01262F972F8A018091910300
:10145000882391F0C62FD72F6E01C40ED51ECC1550
:10146000DD0571F06991D701ED91FC910190F0815A
:10147000E02DC7011995F3CF642F822F0E94CE096A
:10148000C801DF91CF911F910F91FF90EF90DF90F6
:10149000CF900895CF93DF931F92CDB7DEB76983C6
:1014A000209191032223D1F02091B403203240F007
:1014B00021E030E0FC013383228380E090E015C01E
:1014C00080919203E82FF0E0ED56FC4F99819083D4
:1014D0008F5F809392038093B40305C061E0CE01D7
:1014E00001960E94CE0981E090E00F90DF91CF91AC
:1014F00008953FB7F8948091DA049091DB04A091AD
:10150000DC04B091DD0426B5A89B05C02F3F19F07F
:101510000196A11DB11D3FBFBA2FA92F982F882773
:10152000820F911DA11DB11DBC01CD0142E0660FCE
:10153000771F881F991F4A95D1F70895EF92FF9260
:101540000F931F93CF93DF931F92CDB7DEB7E82E93
:101550008A0181E080939103E092B3031092920399
:101560001092B40387EB93E029830E944A0A81E03A
:101570000E94BF05F82EE3E5F2E03197F1F72981EB
:10158000809190038111FCCF213208F020E291E09C
:101590009093900390938F038FEF80938E0310921C
:1015A0008D03820F80938C0390936B0390916B0358
:1015B000EE0C9E2990936B0380916A03813061F455
:1015C00010926A0380916B038093BB008091BC00F2
:1015D00083FDF8CF85EC01C085EE8093BC0080913F
:1015E00090038130E1F380918D03821710F42091F4
:1015F0008D03ACE6B3E045E255E0FA018E2F841B83
:10160000821718F48D918193F9CF1092D70420930B
:10161000D8049091D8048091D704981741F087EBB3
:1016200093E00E94060AF80181938F01F2CF8F2D7B
:101630000F90DF91CF911F910F91FF90EF90089540
:10164000FC01248131E0309391032093B303109285
:1016500092031092B4038385682B87EB93E00E947A
:101660004A0A81E00C94BF050F931F93CF938C011E
:10167000C62F0E94200B6C2F6460C8010E94200BB3
:101680006C2F6B7FC8010E94200B83EC90E00197C8
:10169000F1F7CF911F910F910895FF920F931F9330
:1016A000CF93DF931F92CDB7DEB78C01F62E962F26
:1016B000907F692F642BC80149830E94340B80E11D
:1016C000F89EB00111244981642BC8010F90DF916D
:1016D000CF911F910F91FF900C94340B41E00E9429
:1016E0004D0B81E090E008951F920F920FB60F927C
:1016F00011240BB60F922F933F934F935F936F93E9
:101700007F938F939F93AF93BF93EF93FF938091BA
:10171000B900887F803609F49CC068F5883209F4E6
:101720005BC090F4803109F454C038F4882309F484
:10173000F6C0883009F44DC0F6C0883109F44CC0B9
:10174000803209F45DC0EFC0803409F468C048F409
:10175000803309F455C0883309F0E5C080938E03C7
:10176000D8C0803509F44FC0883509F45DC088348D
:1017700009F0D9C0D6C0883909F4C7C0A8F48837A1
:1017800009F467C038F4883609F463C0803709F477
:1017900060C0C9C0883809F4B8C0803909F45FC096
:1017A000803809F0C0C05BC0803B09F486C038F4C3
:1017B000803A09F466C0883A09F47FC0B4C0803C1E
:1017C00009F4A7C0883C09F4A4C0883B09F48AC086
:1017D000AAC080916B0310C090918D0380918C03FF
:1017E000981770F5E0918D0381E08E0F80938D0343
:1017F000F0E0E459FC4F80818093BB0085EC86C00B
:1018000080938E038EC0E0918D0381E08E0F8093D4
:101810008D038091BB00F0E0E459FC4F80839091F0
:101820008D0380918C036EC0E0918D0381E08E0F5B
:1018300080938D038091BB00F0E0E459FC4F8083DE
:1018400080918F0381116DC081E080936A0384EAE7
:1018500061C083E08093900310922405CFCF8091E4
:101860002405803208F051C0E091240581E08E0FFC
:10187000809324058091BB00F0E0EC5FFA4F8083F9
:10188000BDCF85EC8093BC0010929003809124051D
:10189000803230F4E0912405F0E0EC5FFA4F1082E2
:1018A0006091240570E0E0910205F091030584E069
:1018B00095E019951092240536C084E0809390033A
:1018C0001092010510920005E091FE04F091FF04D2
:1018D000199580910005811105C081E08093000574
:1018E0001092DE04E091010581E08E0F80930105E6
:1018F000F0E0E252FB4F80818093BB0090910105A4
:1019000080910005981708F479CF85E88093BC0092
:101910000AC085EC8093BC001092900304C0109222
:101920008E030E94C409FF91EF91BF91AF919F91E7
:101930008F917F916F915F914F913F912F910F9078
:101940000BBE0F900FBE0F901F9018951092900332
:1019500081E080938F0310926A0361E084E10E942A
:10196000530761E085E10E945307E9EBF0E08081D5
:101970008E7F808380818D7F808388E48093B80010
:1019800085E48093BC0008958F929F92AF92BF929E
:10199000CF92DF92EF92FF926B017C010E94790A55
:1019A0004B015C01C114D104E104F104F1F00E9487
:1019B000790ADC01CB0188199909AA09BB09883E7B
:1019C0009340A105B10570F321E0C21AD108E108E6
:1019D000F10888EE880E83E0981EA11CB11CC1148A
:1019E000D104E104F10419F7DDCFFF90EF90DF900F
:1019F000CF90BF90AF909F908F9008951F920F92BD
:101A00000FB60F9211242F933F938F939F93AF9311
:101A1000BF938091D3049091D404A091D504B09148
:101A2000D6043091D90423E0230F2D3720F40196FA
:101A3000A11DB11D05C026E8230F0296A11DB11DF1
:101A40002093D9048093D3049093D404A093D50415
:101A5000B093D6048091DA049091DB04A091DC0469
:101A6000B091DD040196A11DB11D8093DA0490931D
:101A7000DB04A093DC04B093DD04BF91AF919F9190
:101A80008F913F912F910F900FBE0F901F9018953F
:101A9000CF93DF9300D01F92CDB7DEB7789484B593
:101AA000826084BD84B5816084BD85B5826085BD5A
:101AB00085B5816085BD80916E00816080936E00E8
:101AC00010928100809181008260809381008091DA
:101AD000810081608093810080918000816080938B
:101AE00080008091B10084608093B1008091B0004B
:101AF00081608093B000809191008260809391001A
:101B0000809191008160809391008091900081602C
:101B1000809390008091A10082608093A1008091C9
:101B2000A10081608093A1008091A00081608093DA
:101B3000A000809121018260809321018091210188
:101B40008160809321018091200181608093200138
:101B500080917A00846080937A0080917A0082601C
:101B600080937A0080917A00816080937A008091DE
:101B70007A00806880937A001092C1001092D70496
:101B80001092D804109292031092B4030E94A60CF3
:101B90001092CC048091D104823018F098E0909398
:101BA000CC048093CF0462E370E080E090E00E9478
:101BB000C40C6091D20487EC94E00E94200B68EE84
:101BC00073E080E090E00E94C40C60E387EC94E056
:101BD0000E94340B0BE416E4C8010197F1F760E3AF
:101BE00087EC94E00E94340BC8010197F1F760E3A1
:101BF00087EC94E00E94340B83E592E00197F1F7C3
:101C000060E287EC94E00E94340B6091CC04606247
:101C100040E087EC94E00E944D0B84E08093CD047B
:101C200040E06CE087EC94E00E944D0B40E061E006
:101C300087EC94E00E944D0B0BE31FE1C801019774
:101C4000F1F752E0F52EF092CE0440E066E087EC2A
:101C500094E00E944D0B40E062E087EC94E00E942B
:101C60004D0BC8010197F1F788E08093D20460E042
:101C700087EC94E00E94200B60E372E087EC94E034
:101C80000E947B03E091D303F091D403F082E091B2
:101C9000CF03F091D0031082E091D103F091D203F1
:101CA00080E180831092DB03E091D703F091D803A9
:101CB00086E08083E091D503F091D6038081806136
:101CC0008083E091D503F091D60380818860808382
:101CD000E091D503F091D603808180688083E09104
:101CE000D503F091D60380818F7D80831092D70435
:101CF0001092D804109292031092B4030E94A60C82
:101D0000E8E3F2E02491E2EFF1E084918823C9F066
:101D100090E0880F991FFC01E254FE4F45915491C9
:101D2000FC01E852FE4FA591B4919FB7F894FA01D7
:101D30003081822F809583238083EC91E22BEC937A
:101D40009FBFECE3F2E02491E6EFF1E08491882379
:101D500099F090E0880F991FFC01E254FE4FA59185
:101D6000B491FC01E852FE4F859194918FB7F8949D
:101D7000EC91E22BEC938FBF60E084E00E9453076C
:101D80006CE271E080E090E00E94C40C61E084E0CD
:101D90000E94530768E572E080E090E00E94C40C66
:101DA0008EE99AE090936D0480936C048CE196E048
:101DB00090936B0480936A0487E194E090936F049E
:101DC00080936E0488E2809369041C821B821982CE
:101DD0001A8281E694E09093B6038093B50321E0E4
:101DE000AE014D5F5F4F67E088E20E941C06A09144
:101DF000B503B091B6031B96ED91FC911C9721E0C1
:101E0000AE014C5F5F4F60E018968C911995A091E0
:101E1000B503B091B6038C818C931B96ED91FC9128
:101E20001C9721E0AE014C5F5F4F61E018968C91EA
:101E30001995A091B503B091B6038C8114968C933B
:101E400014971B96ED91FC911C9721E0AE014C5F1D
:101E50005F4F62E018968C911995A091B503B091EF
:101E6000B6038C8115968C9315971B96ED91FC917A
:101E70001C9721E0AE014C5F5F4F63E018968C9198
:101E80001995A091B503B091B6038C8116968C93E9
:101E900016971B96ED91FC911C9721E0AE014C5FCB
:101EA0005F4F66E018968C911995A091B503B0919B
:101EB000B6038C8117968C9317971B96ED91FC9126
:101EC0001C9722E0AE014F5F5F4F64E018968C9143
:101ED0001995A091B503B091B6038A8190E0982F2F
:101EE00088272981822B12969C938E9311971B969B
:101EF000ED91FC911C9721E0AE014C5F5F4F67E0D4
:101F000018968C911995E091B503F091B6038C81E8
:101F1000838362E370E080E090E00E94C40C1B8247
:101F200019828091B5039091B603892BC1F1CE013E
:101F300001960E94D00781112EC08981811126C08F
:101F4000A091B503B091B6031B96ED91FC911C973F
:101F500021E0AE014D5F5F4F6BE318968C911995B0
:101F6000811119C08B8180688B83A091B503B091DA
:101F7000B6031996ED91FC911A9721E0AE014D5FE1
:101F80005F4F6BE318968C91199505C080E00E9415
:101F90000B088823A9F2898181110E940B081092F5
:101FA00060048CE00E940B0881E08093600480E470
:101FB00092E00E94ED042FB7F8948091D3049091A1
:101FC000D404A091D504B091D6042FBF803197429C
:101FD000A105B105D8F40E949D080E9400058091DA
:101FE0006004811102C00E949D0880919C04909120
:101FF0009D04A0919E04B0919F0480935E039093F2
:102000005F03A0936003B0936103D5CF80E792E0B4
:102010000E94ED0488EA92E00E94ED0469EB72E010
:1020200083EC93E00E947B0368EE73E080E090E035
:102030000E94C40C6EEB72E083EC93E00E947B0381
:1020400068EE73E080E090E00E94C40C83EC92E0C4
:102050000E94ED0468EE73E080E090E00E94C40C02
:1020600068EC72E083EC93E00E947B0360915E0376
:1020700070915F0380916003909161030E941C0442
:102080006CED72E083EC93E00E941D032FB7F8948F
:102090008091D3049091D404A091D504B091D6043A
:1020A0002FBF409166035091670360916803709160
:1020B0006903841B950BA60BB70B4497A105B105CB
:1020C00008F4CAC12FB7F8948091D3049091D40436
:1020D000A091D504B091D6042FBF8093660390934E
:1020E0006703A0936803B09369030E949D080E9450
:1020F00053060E9400056FED72E083EC93E00E94AE
:102100007B0340916603509167036091680370916F
:1021100069032AE083EC93E00E94320366EE72E0EA
:1021200083EC93E00E947B036AEE72E083EC93E021
:102130000E947B0380916004811102C00E949D086F
:1021400080919C0490919D04A0919E04B0919F0465
:102150008093620390936303A0936403B093650339
:1021600080916004811102C00E949D0860919C04CE
:1021700070919D0480919E0490919F040E941C0484
:1021800065EF72E083EC93E00E947B036AEF72E0FC
:1021900083EC93E00E947B03209162033091630300
:1021A000409164035091650360915E0370915F03F9
:1021B00080916003909161030E94A11260935A0381
:1021C00070935B0380935C0390935D030E941C04F7
:1021D00061E073E083EC93E00E947B0365E073E0D1
:1021E00083EC93E00E947B0380916004811102C024
:1021F0000E949D086091A0047091A1048091A204A6
:102200009091A3040E941C0461E073E083EC93E0CE
:102210000E947B036DE073E083EC93E00E947B03FC
:1022200080916004811102C00E949D086091A40405
:102230007091A5048091A6049091A7040E941C04AB
:1022400065EF72E083EC93E00E947B0366E173E04C
:1022500083EC93E00E947B0380916004811102C0B3
:102260000E94530660917C0470917D0480917E04ED
:1022700090917F040E941C046EE173E083EC93E074
:102280000E947B0361E273E083EC93E00E947B0396
:1022900080916004811102C00E9453066091800405
:1022A0007091810480918204909183040E941C04A7
:1022B0006EE173E083EC93E00E947B0361E273E0E4
:1022C00083EC93E00E947B030E94BE020E941C04E8
:1022D00065EF72E083EC93E00E947B0369E273E0B8
:1022E00083EC93E00E947B0380916004811102C023
:1022F0000E9400054091C00450E060E070E02AE0D8
:1023000083EC93E00E9432036EE273E083EC93E08F
:102310000E947B0380916004811102C00E9400052D
:102320004091C10450E060E070E02AE083EC93E06B
:102330000E94320363E373E083EC93E00E947B032B
:1023400080916004811102C00E9400054091C20486
:1023500050E060E070E02AE083EC93E00E943203FA
:1023600068E373E083EC93E00E947B038091600458
:10237000811102C00E9400054091C30450E060E05A
:1023800070E02AE083EC93E00E9432036CED72E08F
:1023900083EC93E00E941D0380E00E94F1066BEE47
:1023A00072E087EC94E00E947B03C0906203D090BF
:1023B0006303E0906403F090650320E030E0A9013E
:1023C000C701B6010E94021520E030E040E05FE363
:1023D00087FD05C0C701B6010E94A21204C0C70153
:1023E000B6010E94A1120E94F313CB010E941F07A5
:1023F0006DE373E087EC94E00E947B0381E00E9430
:10240000F10664E473E087EC94E00E947B030E9491
:10241000BE0220E030E0A9010E94021587FD09C03C
:102420000E94BE0220E030E040E05FE30E94A21282
:1024300008C00E94BE0220E030E040E05FE30E945E
:10244000A1120E94F313CB010E941F076DE373E0FA
:1024500087EC94E00E947B030E94830217CEE7EB97
:10246000F3E01382128288EE93E0A0E0B0E0848370
:102470009583A683B7832CE032E031832083E3EC9D
:10248000F3E01382128284839583A683B7838CE161
:1024900092E09183808385EC90E09587848784EC3B
:1024A00090E09787868780EC90E0918B808B81EC21
:1024B00090E0938B828B82EC90E0958B848B86EC02
:1024C00090E0978B868B118E128E138E148EE7EC14
:1024D000F4E0138212828CE292E09183808387E29F
:1024E000848380E1818782E0828713860895A1E258
:1024F0001A2EAA1BBB1BFD010DC0AA1FBB1FEE1F7E
:10250000FF1FA217B307E407F50720F0A21BB30BC8
:10251000E40BF50B661F771F881F991F1A9469F744
:1025200060957095809590959B01AC01BD01CF01A0
:102530000895EE0FFF1F881F8BBF0790F691E02DC7
:1025400019945058BB27AA270E94B9120C94C8149A
:102550000E94BA1438F00E94C11420F039F49F3F51
:1025600019F426F40C9490140EF4E095E7FB0C9407
:102570008A14E92F0E94D91458F3BA176207730717
:102580008407950720F079F4A6F50C94FB140EF45B
:10259000E0950B2EBA2FA02D0B01B90190010C0173
:1025A000CA01A0011124FF27591B99F0593F50F48B
:1025B000503E68F11A16F040A22F232F342F4427E3
:1025C000585FF3CF469537952795A795F0405395DB
:1025D000C9F77EF41F16BA0B620B730B840BBAF0AB
:1025E0009150A1F0FF0FBB1F661F771F881FC2F716
:1025F0000EC0BA0F621F731F841F48F4879577952A
:102600006795B795F7959E3F08F0B0CF9395880FE3
:1026100008F09927EE0F9795879508950E94BA14B0
:1026200060F080E891E009F49EEF0E94C11428F068
:1026300040E851E071F45EEF0CC00C9490140C94DF
:10264000FB14E92FE0780E94D91440F3092E052AE3
:10265000B1F3261737074807590738F00E2E07F849
:10266000E02569F0E025E0640AC0EF6307F8009414
:1026700007FADB01B9019D01DC01CA01AD01EF934D
:102680000E9498130E94C8140E9451135F91552311
:1026900039F02BED3FE049E450FD49EC0C94A212D7
:1026A0000895DF93DD27B92FBF7740E85FE3161663
:1026B000170648075B0718F4D92F0E9407159F9348
:1026C0008F937F936F930E947C15E8E0F1E00E9466
:1026D00093140E94C8142F913F914F915F910E94D3
:1026E0002215DD2351F09058A2EA2AED3FE049EC93
:1026F0005FE3D0785D270E94B912DF910C94C81473
:102700000E94661408F481E008950E94C11458F0F4
:102710000E94BA1440F029F45F3F29F00C948A1407
:1027200051110C94FC140C9490140E94D91468F369
:102730009923B1F3552391F3951B550BBB27AA277A
:1027400062177307840738F09F5F5F4F220F331FB4
:10275000441FAA1FA9F335D00E2E3AF0E0E832D07C
:1027600091505040E695001CCAF72BD0FE2F29D07F
:10277000660F771F881FBB1F261737074807AB0751
:10278000B0E809F0BB0B802DBF01FF2793585F4FC6
:102790003AF09E3F510578F00C948A140C94FC1486
:1027A0005F3FE4F3983ED4F3869577956795B795A8
:1027B000F7959F5FC9F7880F911D9695879597F9B3
:1027C0000895E1E0660F771F881FBB1F621773072C
:1027D0008407BA0720F0621B730B840BBA0BEE1F41
:1027E00088F7E09508950E94FA136894B1110C944B
:1027F000FC1408950E94E11488F09F5798F0B92FB7
:102800009927B751B0F0E1F0660F771F881F991F25
:102810001AF0BA95C9F714C0B13091F00E94FB14B8
:10282000B1E008950C94FB14672F782F8827B85FC8
:1028300039F0B93FCCF3869577956795B395D9F77D
:102840003EF490958095709561957F4F8F4F9F4F87
:102850000895E89409C097FB3EF490958095709593
:1028600061957F4F8F4F9F4F9923A9F0F92F96E9DC
:10287000BB279395F695879577956795B795F11151
:10288000F8CFFAF4BB0F11F460FF1BC06F5F7F4FEE
:102890008F4F9F4F16C0882311F096E911C0772300
:1028A00021F09EE8872F762F05C0662371F096E809
:1028B000862F70E060E02AF09A95660F771F881FD8
:1028C000DAF7880F9695879597F90895990F00087C
:1028D000550FAA0BE0E8FEEF16161706E807F907F2
:1028E000C0F012161306E407F50798F0621B730B8D
:1028F000840B950B39F40A2661F0232B242B252B0E
:1029000021F408950A2609F4A140A6958FEF811DB0
:10291000811D089597F99F6780E870E060E0089551
:102920009FEF80EC0895DF93CF931F930F93FF9257
:10293000EF92DF927B018C01689406C0DA2EEF01E2
:102940000E942215FE01E894A591259135914591AB
:102950005591A6F3EF010E94B912FE019701A8015B
:10296000DA9469F7DF90EF90FF900F911F91CF916C
:10297000DF91089500240A94161617061806090612
:10298000089500240A9412161306140605060895E5
:10299000092E0394000C11F4882352F0BB0F40F46D
:1029A000BF2B11F460FF04C06F5F7F4F8F4F9F4FAD
:1029B000089557FD9058440F551F59F05F3F71F02F
:1029C0004795880F97FB991F61F09F3F79F0879596
:1029D0000895121613061406551FF2CF4695F1DF1F
:1029E00008C0161617061806991FF1CF86957105AF
:1029F000610508940895E894BB2766277727CB01E3
:102A000097F908950E94661408F48FEF08959B01CA
:102A1000AC0160E070E080E89FE30C9485150E94B3
:102A200022150C94C8140E94BA1438F00E94C114E4
:102A300020F0952311F00C948A140C949014112416
:102A40000C94FC140E94D91470F3959FC1F3950F58
:102A500050E0551F629FF001729FBB27F00DB11D22
:102A6000639FAA27F00DB11DAA1F649F6627B00DB2
:102A7000A11D661F829F2227B00DA11D621F739F9B
:102A8000B00DA11D621F839FA00D611D221F749FA9
:102A90003327A00D611D231F849F600D211D822FF0
:102AA000762F6A2F11249F5750409AF0F1F0882317
:102AB0004AF0EE0FFF1FBB1F661F771F881F915044
:102AC0005040A9F79E3F510580F00C948A140C9455
:102AD000FC145F3FE4F3983ED4F3869577956795B1
:102AE000B795F795E7959F5FC1F7FE2B880F911D6E
:102AF0009695879597F908959B01AC010C940F1555
:102B00000E946614880B990B08950E9495130C94EB
:102B1000C81481E090E0F8940C948E15F894FFCFDF
:102B20000000400014005400000000004A0A1A0A85
:102B3000BC09060AF709F609000000001A0296010E
:102B4000E301C101D5016102000000006E0B960196
:102B50004C434420696E697469616C697A656400EC
:102B6000466F7220746865206E6578742074656E97
:102B7000207365636F6E64732C20706C6561736580
:102B800020726F746174652074686520524F56001E
:102B9000506C6561736520706C61636520524F569F
:102BA000206F6E206120666C61742073757266619F
:102BB000636520666163696E67206177617920666D
:102BC000726F6D20796F750053747265616D696EF7
:102BD0006720696E202E2E2E00332E2E2E00322ED0
:102BE0002E2E00312E2E2E00496E697469616C20E4
:102BF00068656164696E6720697320000D0A00547E
:102C0000696D653A20006D73200020486561646934
:102C10006E673A20006465672000205961773A208A
:102C2000006465670020526F6C6C3A200020506988
:102C30007463683A2000204D6167583A20005420A0
:102C400000204D6167593A200020413A2000204D74
:102C50003A200020473A200020533A2000206465A3
:102C600067202000436F6D706173733A20006E61BE
:0A2C70006E00696E66006F76660064
:00000001FF
