:100000000C9458000C9480000C9480000C94800098
:100010000C9480000C9480000C9480000C94800060
:100020000C9480000C9480000C9480000C94800050
:100030000C9480000C9480000C9480000C94800040
:100040000C94DE030C9480000C9480000C948000CF
:100050000C9480000C9480000C9480000C94800020
:100060000C94B0020C9480000000000025002800D1
:100070002B00040404040404040402020202020229
:10008000030303030303010204081020408001025C
:1000900004081020010204081020000000080002DB
:1000A0000100000304070000000000000000280415
:1000B00011241FBECFEFD8E0DEBFCDBF11E0A0E01E
:1000C000B1E0ECEDFAE002C005900D92AE33B1075D
:1000D000D9F721E0AEE3B1E001C01D92A33FB20722
:1000E000E1F710E0C8E5D0E004C02197FE010E94CE
:1000F0006105C735D107C9F70E9448040C946C0507
:100100000C94000090E0FC01E656FF4F2491FC01A6
:10011000EA57FF4F3491FC01EE58FF4FE491EE2374
:10012000B1F1222339F1233091F038F42130A9F0D4
:10013000223001F584B58F7D12C0273091F0283030
:10014000A1F02430B9F4809180008F7D03C08091AC
:1001500080008F77809380000DC084B58F7784BD39
:1001600009C08091B0008F7703C08091B0008F7D6F
:100170008093B000F0E0EE0FFF1FE859FF4FA5910C
:10018000B4918FB7F894EC913E2B3C938FBF0895B8
:1001900085ED8093BC008091BC0084FDFCCF109263
:1001A000B501089540918F01262F30E0240F311DB5
:1001B00021323105DCF42091B5012430C9F4FC0171
:1001C00080E090E0861758F430918F012191DC0196
:1001D000A359BE4FA30FB11D2C930196F3CF80916D
:1001E0008F01680F60938F0180E0089581E008958A
:1001F00082E00895089581E090E030916C012091B3
:100200006B01321710F480E090E09195819591098F
:10021000089580916C0190916B01891730F48F5F84
:1002200080936C0180E090E008958FEF9FEF089538
:1002300080916B0190E020916C01821B91090895DF
:10024000CF92DF92EF92FF920F931F93CF93DF93A2
:100250007C01262F972F8A0180916A01882391F0D3
:10026000C62FD72F6E01C40ED51ECC15DD0571F03B
:100270006991D701ED91FC910190F081E02DC701CA
:100280000995F3CF642F822F0E94D200C801DF911D
:10029000CF911F910F91FF90EF90DF90CF90089535
:1002A000CF93DF931F92CDB7DEB7698320916A01A8
:1002B0002223D1F020916901203240F021E030E08A
:1002C000FC013383228380E090E015C080916801B7
:1002D000E82FF0E0E85BFE4F998190838F5F809379
:1002E00068018093690105C061E0CE0101960E941A
:1002F000D20081E090E00F90DF91CF910895CF93ED
:10030000FC01C48121E020936A01C093470110924F
:100310006801109269018385682B8BED91E00E9442
:10032000500180916901813208F046C09091B50179
:100330009111FCCF92E09093B50191E09093B701B9
:100340009FEF9093B4011092D9018093D801A8E453
:10035000B1E028EB31E0F9019E2F921B981718F4B9
:100360009D919193F9CF1092DA018091DA01CC0F2F
:10037000C82BC093DA018091B601813061F41092EC
:10038000B6018091DA018093BB008091BC0083FDAF
:10039000F8CF85EC01C085EE8093BC008091B5015B
:1003A0008230E1F38091B4018F3F31F08091B4014C
:1003B000803211F08091B4011092680110926901AD
:1003C00010926A01CF9108950F931F93CF938C01E0
:1003D000C62F0E947F016C2F6460C8010E947F01BC
:1003E0006C2F6B7FC8010E947F0183EC90E0019726
:1003F000F1F7CF911F910F910895FF920F931F93E3
:10040000CF93DF931F92CDB7DEB78C01F62E962FD8
:10041000907F692F642BC80149830E94E40180E129
:10042000F89EB00111244981642BC8010F90DF911F
:10043000CF911F910F91FF900C94E40141E00E9435
:10044000FD0181E090E008953FB7F8948091430169
:1004500090914401A0914501B091460126B5A89B19
:1004600005C02F3F19F00196A11DB11D3FBFBA2F46
:10047000A92F982F8827820F911DA11DB11DBC01A6
:10048000CD0142E0660F771F881F991F4A95D1F76B
:1004900008958F929F92AF92BF92CF92DF92EF9288
:1004A000FF926B017C010E9424024B015C01C1148C
:1004B000D104E104F104F1F00E942402DC01CB013B
:1004C00088199909AA09BB09883E9340A105B1057D
:1004D00070F321E0C21AD108E108F10888EE880E15
:1004E00083E0981EA11CB11CC114D104E104F104E5
:1004F00019F7DDCFFF90EF90DF90CF90BF90AF90D6
:100500009F908F900895CF92DF92EF92FF920F937A
:100510001F93CF93DF936C017A018B01C0E0D0E091
:10052000CE15DF0589F0D8016D918D01D601ED91D1
:10053000FC910190F081E02DC6010995892B11F401
:100540007E0102C02196ECCFC701DF91CF911F91B0
:100550000F91FF90EF90DF90CF9008950E94670574
:100560001F920F920FB60F9211242F933F934F9328
:100570005F936F937F938F939F93AF93BF93EF930B
:10058000FF938091B900887F803609F49CC068F59C
:10059000883209F45BC090F4803109F454C038F417
:1005A000882309F4F6C0883009F44DC0F6C08831BC
:1005B00009F44CC0803209F45DC0EFC0803409F406
:1005C00068C048F4803309F455C0883309F0E5C0A9
:1005D0008093B401D8C0803509F44FC0883509F440
:1005E0005DC0883409F0D9C0D6C0883909F4C7C0C5
:1005F000A8F4883709F467C038F4883609F463C072
:10060000803709F460C0C9C0883809F4B8C080399F
:1006100009F45FC0803809F0C0C05BC0803B09F4BA
:1006200086C038F4803A09F466C0883A09F47FC07D
:10063000B4C0803C09F4A7C0883C09F4A4C0883B3E
:1006400009F48AC0AAC08091DA0110C09091D90142
:100650008091D801981770F5E091D90181E08E0F53
:100660008093D901F0E0E854FE4F80818093BB0075
:1006700085EC86C08093B4018EC0E091D90181E001
:100680008E0F8093D9018091BB00F0E0E854FE4FBB
:1006900080839091D9018091D8016EC0E091D901F9
:1006A00081E08E0F8093D9018091BB00F0E0E85487
:1006B000FE4F80838091B70181116DC081E08093EE
:1006C000B60184EA61C083E08093B5011092B30162
:1006D000CFCF8091B301803208F051C0E091B301D7
:1006E00081E08E0F8093B3018091BB00F0E0ED5666
:1006F000FE4F8083BDCF85EC8093BC001092B50186
:100700008091B301803230F4E091B301F0E0ED5616
:10071000FE4F10826091B30170E0E0919101F09181
:10072000920183E991E009951092B30136C084E00B
:100730008093B5011092900110928F01E0918D018C
:10074000F0918E01099580918F01811105C081E0A2
:1007500080938F0110926D01E091900181E08E0FE6
:1007600080939001F0E0E359FE4F80818093BB00BD
:100770009091900180918F01981708F479CF85E8C6
:100780008093BC000AC085EC8093BC001092B50138
:1007900004C01092B4010E94C800FF91EF91BF9174
:1007A000AF919F918F917F916F915F914F913F9109
:1007B0002F910F900FBE0F901F9018951F920F92C0
:1007C0000FB60F9211242F933F938F939F93AF9364
:1007D000BF9380913F0190914001A0914101B09160
:1007E000420130913E0123E0230F2D3720F4019682
:1007F000A11DB11D05C026E8230F0296A11DB11D44
:1008000020933E0180933F0190934001A0934101CA
:10081000B09342018091430190914401A091450120
:10082000B09146010196A11DB11D809343019093A3
:100830004401A0934501B0934601BF91AF919F91B0
:100840008F913F912F910F900FBE0F901F90189591
:10085000EBEDF1E01382128288EE93E0A0E0B0E0CD
:1008600084839583A683B7838CE091E09183808312
:10087000E7EEF1E0138212828CE191E091838083B4
:1008800087E2848380E1818782E0828713860895EE
:10089000CF93DF93CDB7DEB728970FB6F894DEBFBE
:1008A0000FBECDBF789484B5826084BD84B581606D
:1008B00084BD85B5826085BD85B5816085BD80912B
:1008C0006E00816080936E001092810080918100A3
:1008D000826080938100809181008160809381009B
:1008E000809180008160809380008091B10084605D
:1008F0008093B1008091B00081608093B0008091BE
:100900007A00846080937A0080917A00826080937C
:100910007A0080917A00816080937A0080917A00D9
:10092000806880937A001092C10010926C0110923E
:100930006B0110926801109269011092B50181E07B
:100940008093B7011092B60182E10E94820083E198
:100950000E9482008091B9008E7F8093B9008091BF
:10096000B9008D7F8093B90088E48093B80085E456
:100970008093BC001092EC018091F101823018F05C
:1009800098E09093EC018093EF0162E370E080E0E7
:1009900090E00E9449026091F20187EE91E00E948E
:1009A0007F0168EE73E080E090E00E94490260E31E
:1009B00087EE91E00E94E4010BE416E4C801019780
:1009C000F1F760E387EE91E00E94E401C80101972E
:1009D000F1F760E387EE91E00E94E40183E592E0A5
:1009E0000197F1F760E287EE91E00E94E4016091E7
:1009F000EC01606240E087EE91E00E94FD0184E03E
:100A00008093ED0140E06CE087EE91E00E94FD01F3
:100A100040E061E087EE91E00E94FD010BE31FE101
:100A2000C8010197F1F782E08093EE0140E066E0B3
:100A300087EE91E00E94FD0140E062E087EE91E0E8
:100A40000E94FD01C8010197F1F718E01093F2012F
:100A500060E087EE91E00E947F014DE050E060E2AF
:100A600071E087EE91E00E948302E0E0F1E0DE01B8
:100A7000119601900D921A95E1F78091EF01811185
:100A800002C08FEF01C081E0FE013196E80FF11D39
:100A9000E80FF11D6081606840E087EE91E00E9400
:100AA000FD014EE050E06EE271E087EE91E00E94C1
:100AB000830200E010E001151105E9F30E94000037
:100AC000FACFEE0FFF1F0590F491E02D099481E01D
:0C0AD00090E0F8940C946C05F894FFCFB3
:100ADC0000004000140054000000000050012001F0
:100AEC0018010901FB00FA00000000001E0283023D
:100AFC0048656C6C6F2C20776F726C6421005768A2
:0E0B0C00617427732075702066616D3F0000D4
:00000001FF
